:020000040800F2
:100000006804002099010008170E0008610D00081F
:10001000150E0008A50200088B0E00080000000065
:100020000000000000000000000000001B0E00089F
:10003000A702000800000000190E00081D0E0008AD
:10004000B3010008B3010008B3010008B3010008C0
:10005000B3010008B3010008B3010008B3010008B0
:10006000B3010008B3010008B3010008B3010008A0
:10007000B3010008B3010008B3010008B301000890
:10008000B3010008B3010008B3010008B301000880
:10009000B3010008B3010008B3010008B301000870
:1000A000B3010008B3010008B3010008B301000860
:1000B000B3010008B3010008B3010008B301000850
:1000C000B3010008B3010008B3010008B301000840
:1000D000B3010008B3010008B3010008B301000830
:1000E000B3010008B3010008B3010008B301000820
:1000F000B3010008B3010008B3010008B301000810
:10010000B3010008B3010008B3010008B3010008FF
:10011000B3010008B3010008B3010008B3010008EF
:10012000B3010008B3010008B3010008B3010008DF
:10013000B30100080000000000000000B301000847
:10014000B3010008B3010008B3010008B3010008BF
:10015000B3010008B3010008B3010008B3010008AF
:10016000B3010008B3010008B3010008B30100089F
:10017000B3010008B3010008000000000000000007
:10018000B3010008DFF80CD000F07AF8004800470F
:10019000CB0E000868040020064880470648004748
:1001A000FEE7FEE7FEE7FEE7FEE7FEE7FEE7FEE727
:1001B000FEE7FEE7890E0008850100082DE9F05FE3
:1001C0000546002092469B468846064681464024C6
:1001D0001BE0284641464746224600F041F8534678
:1001E0005A46C01A914110D311461846224600F0D3
:1001F00028F82D1A67EB01084F46224601200021FE
:1002000000F01FF817EB00094E41201EA4F1010475
:10021000DFDC484631462A464346BDE8F09FD2B26D
:1002200001E000F8012B491EFBD270470022F6E7DF
:1002300010B513460A4604461946FFF7F0FF20465C
:1002400010BD202A04DB203A00FA02F1002070479A
:100250009140C2F1200320FA03F319439040704704
:10026000202A04DB203A21FA02F00021704721FA0B
:1002700002F3D040C2F12002914008431946704772
:10028000064C074D06E0E06840F0010394E80700E3
:1002900098471034AC42F6D3FFF778FFF40E00080D
:1002A000140F0008FEE7704772B6FEE72DE9F04F25
:1002B000DFF85092002309F1040A012603250AF110
:1002C000040B85B00F270BF1040E12E1224606FA4B
:1002D00003F422407ED091F804C00CF0030CBCF172
:1002E000010F02D0BCF1020F26D1D0F80880CDF862
:1002F00000804FEA430805FA08FCCDF81080DDF8CD
:10030000008028EA0C08CDF80080D1F80CC0DDF898
:1003100010800CFA08FCDDF800804CEA080CC0F8EC
:1003200008C0D0F804C02CEA040C0C79C4F3001403
:100330009C4044EA0C0444600C79E443A40712D0C6
:10034000C4684FEA430CCDF808C005FA0CFC24EA57
:100350000C04D1F80880DDF808C008FA0CF848EA67
:100360000408C0F80C800C7904F00304022C16D1A8
:10037000DC0800EB840CCDF808C0DCF820C05C077A
:100380004FEAD46807FA08F42CEA040C0C6904FA62
:1003900008F444EA0C04DDF808C0CCF820400468F6
:1003A0004FEA430805FA08FC24EA0C0491F804C05B
:1003B0000CF0030C0CFA08FC4CEA040CC0F800C06A
:1003C0004C6814F4403F05D04F4CD4F800C04CF4B6
:1003D000804C00E08CE0C4F800C0246823F0030CDB
:1003E00004F480440094494C64440294D4F80848CE
:1003F0004FEA837C4FEA1C7807FA08FC24EA0C04D5
:10040000DFF80CC1604502D14FF0000C39E0DFF895
:1004100004C1604502D14FF0010C32E0DFF8F8C0B2
:10042000604502D14FF0020C2BE0DFF8F0C06045D0
:1004300002D14FF0030C24E0DFF8E4C0604502D1A4
:100440004FF0040C1DE0DFF8DCC0604502D14FF036
:10045000050C16E0DFF8D0C0604502D14FF0060C65
:100460000FE0DFF8C8C0604502D14FF0070C08E08C
:10047000DFF8BCC0604502D14FF0080C01E04FF03E
:10048000090C0CFA08FC4CEA040C029CC4F808C8DD
:10049000D9F80040CC46D1F8048094435FEAC838CC
:1004A00000D51443CCF80040DAF80040D446D1F827
:1004B000048094435FEA883800D51443CCF80040A8
:1004C000DBF80040DC46D1F8048094435FEAC8289A
:1004D00000D51443CCF80040DEF80040F446D1F8D3
:1004E000048094435FEA882800D51443CCF8004088
:1004F0005B1C0A681446DA407FF4E8AE05B0BDE83C
:10050000F08F0000003C01404438024000300140C0
:10051000000002400004024000080240000C0240BB
:10052000001002400014024000180240001C02406B
:100530000020024001488068704700000000002051
:1005400070B5040025D094F83D00002520B984F84A
:100550003C50204600F0B8F8242084F83D00206884
:10056000016821F0010101602068016841F4004147
:1005700001602068016821F40041016000F002FA86
:100580004D4A6168914201D84C4900E04C4988428B
:1005900001D2012070BD4B492368B0FBF1F15E68C8
:1005A00026F03F060E435E606368934206D94FF41F
:1005B000967359434FF47A73B1FBF3F12368491CE6
:1005C0001E6A26F03F06314319626168914210D8D5
:1005D0004900401EB0FBF1F2521CC2F30B02042A88
:1005E00001D2042022E0B0FBF1F0401CC0F30B006C
:1005F0001CE0A268F2B301EBC10303EB0116431E3A
:10060000B3FBF6F35B1C43F480431B0549D092B364
:1006100001EBC10202EB0111401EB0FBF1F0401CE6
:10062000C0F30B0040F4804040F400402168CA69E8
:100630004CF6FF739A431043C861D4E90710014395
:100640002068026822F0C00211430160D4E903016E
:1006500001432068826848F2FF339A431143816066
:10066000D4E9050108432168CA6822F0FF0210435B
:10067000C86001E00EE016E02068016841F0010169
:1006800001602564202084F83D00256384F83E50F5
:10069000002070BD01EB4106431EB3FBF6F35B1C6B
:1006A000B3E70120C2E701EB4101401EB0FBF1F0CE
:1006B000401CC0F30B00B7E7A086010080841E0039
:1006C00000093D0040420F0010B586B004461421D9
:1006D0006846FFF7ABFD13492068884220D11248D5
:1006E000016841F0020101600068694600F0020003
:1006F0000590C0200090122001900120029003205C
:100700000390042004900948FFF7D0FD06481030FC
:10071000016841F400110160006800F400100590C8
:1007200006B010BD005400403038024000040240C2
:1007300002488168027811448160704700000020FF
:100740000B4810B5016841F400710160016841F483
:1007500080610160016841F480710160032000F054
:1007600061F8002000F006F800F024F8002010BD29
:10077000003C024070B50D4D04464FF47A71287864
:10078000B1FBF0F00A490968B1FBF0F000F0D4FACF
:1007900048B9102C07D200222146501E00F022F842
:1007A00000206C6070BD012070BD000000000020C2
:1007B0000C0000200A4808B5016841F4804101603E
:1007C000006800F4804000900548001F016841F077
:1007D00080510160006800F08050009008BD00006A
:1007E00044380240F0B40E4B1B680C46C3F302239E
:1007F000C3F10705042D00D90425191D072901D2CD
:10080000002300E0DB1E012606FA05F1491E214007
:1008100099409E40761E16403143F0BC00F036BB36
:100820000CED00E0064900F0070208684FF6FF03F0
:10083000184040EA0220034A104308607047000055
:100840000CED00E00000FA052DE9F0470E4605002A
:1008500063D0DFF81C81D8F80000F7B200F00F0079
:10086000B04207D288F80070D8F8000000F00F00FE
:10087000B04252D128683F4C810712D5400703D5BA
:10088000206840F4E05020602878000703D52068F5
:1008900040F4604020602068A96820F0F000084320
:1008A00020602878C0072BD03249686808390128B1
:1008B00010D00968022810D0890700292DDA216894
:1008C00021F0030101432160FFF734FE814641F22C
:1008D000883A0EE009688903EFE78901EDE700BF78
:1008E000FFF728FEA0EB0901514502D90320BDE81E
:1008F000F0872068696800F00C00B0EB810FEFD141
:10090000D8F80010404601F00F01B14207D9077036
:10091000006800F00F00B04201D00120E7E728781E
:10092000400705D52068E96820F4E05008432060BE
:100930002878000706D52068296920F4604040EA3D
:10094000C100206000F036F82168F02292FAA2F28D
:1009500001F0F001B2FA82F2D140074A515CC8407E
:100960000649086006480068FFF704FF0020BEE75C
:10097000003C024008380240DC0E00080C00002059
:100980000400002008480949006809684FF4E05253
:1009900092FAA2F201F4E051B2FA82F2D140044A92
:1009A000515CC840704700000C000020083802402D
:1009B000EC0E0008104810B5006810F00C010F484C
:1009C00018D0042916D0082914D10B4C241F2168F3
:1009D00001F03F02216821680023C1F38811A1FBC7
:1009E0000001FFF7EBFB2168C1F30141491C4900FD
:1009F000B0FBF1F010BD0000083802400024F40004
:100A00002DE9F84F04007BD0DFF814B32078ABF168
:100A10000406C007A6F1040536D0DBF800105846DE
:100A2000C1F38101012907D00068C0F381000228C9
:100A300009D13068400206D52868800324D5606853
:100A40000028E0D020E0B6492079891F087060684E
:100A500068B1FFF76FFD074605E000BFFFF76AFDCD
:100A6000C01B642876D828688003F7D50CE0FFF710
:100A700061FD074605E000BFFFF75CFDC01B642871
:100A8000F0D828688003F7D42078DFF898828007B0
:100A90004FF0000944D5DBF80010584611F00C0F58
:100AA0004FF0F80A07D00068C0F38100022809D18E
:100AB0003068400206D42868800715D5E068012810
:100AC0001ED111E0E068E0B10120C8F80000FFF796
:100AD00031FD074605E000BFFFF72CFDC01B0228D3
:100AE000C0D828688007F7D528689AFAAAF2216941
:100AF000B2FA82F220F0F8009140084328600FE03B
:100B00000AE1C8F80090FFF715FD074605E000BFB1
:100B1000FFF710FDC01B02281CD828688007F7D4F7
:100B20002078000727D5DFF8F8A17F4861690AF12E
:100B30006C0A81B101210160FFF7FCFC074604E06B
:100B4000FFF7F8FCC01B022804D8DAF80000800781
:100B5000F6D510E082E0C0F80090FFF7EBFC074606
:100B600005E000BFFFF7E6FCC01B022876D8DAF8E4
:100B700000008007F6D4207840075FD5DFF8A0A1F9
:100B800000270AF1380ADAF80000C0000BD4DAF8BE
:100B9000001041F08051CAF80010DAF80000012777
:100BA00000F0805000906148016841F4807101605C
:100BB0000168C90512D4016841F480710160FFF732
:100BC000B9FC009006E000BFFFF7B4FC0099401AA2
:100BD00002287ED855480068C005F5D55049207ACE
:100BE00068310870A06888B1FFF7A4FC009007E0A6
:100BF000FFF7A0FC0099411A41F28830814268D881
:100C00004748683000688007F2D510E0FFF792FC93
:100C1000009007E0FFF78EFC0099411A41F28830FE
:100C2000814256D83E48683000688007F2D42FB120
:100C3000DAF8001021F08051CAF80010A069B8B3AA
:100C4000DBF80010C1F38101022949D00228C8F85D
:100C5000609004D0FFF76EFC04463DE039E0FFF7FA
:100C600069FC074605E000BFFFF764FCC01B642871
:100C70002FD828688001F7D4D4E907010843616AB6
:100C800094F82C20890141EA02610843A16A284AAC
:100C9000490802EB014108433168264A11400843E4
:100CA00030600120C8F86000FFF744FC044606E00D
:100CB00034E000BFFFF73EFC001B642809D8286819
:100CC0008001F7D52AE000BFFFF734FC001B642841
:100CD00002D90320BDE8F88F28688001F4D41DE014
:100CE0000128F7D03068E26900F48001914213D105
:100CF000226A00F03F0191420ED1616AC0F388126E
:100D0000914209D1A26A00F44031914204D1E16AD2
:100D100000F07060884201D00120DBE70020D9E7B5
:100D20000838024000004742800E474200700040F1
:100D30000000FFFF0080BCF010B5401EB0F1807FC6
:100D400001D3012010BD4FF0E02460610F21601736
:100D500000F09CF80020A06107202061002010BD59
:100D6000FEE7000000B587B014216846FFF75EFA81
:100D700016480021026842F080020260026802F018
:100D800080020592026842F001020260026802F0ED
:100D900001020592026842F002020260026802F05B
:100DA00002020592026842F010020260006800F040
:100DB00010000590032000904FF48810CDE9010148
:100DC00069460348FFF772FA07B000BD30380240A9
:100DD000001002400D4810B50B4901600C494160FC
:100DE00000214FF480428160C0E9031241618161BA
:100DF000C1610162FFF7A4FB002803D0BDE81040E9
:100E0000FFF752BA10BD000000540040100000204F
:100E1000A0860100FEE7FEE770477047FFF788BC39
:100E200030B591B030216846FFF700FA14210CA8C4
:100E3000FFF7FCF901200390022410200490009495
:100E4000002506940D20CDE90750C320CDE9090403
:100E500004200B906846FFF7D3FD08B172B6FEE799
:100E60000CA90F2081E831004FF4A0500F904FF4EF
:100E70008050109003210CA8FFF7E6FC002801D059
:100E800072B6FEE711B030BD7047FEE70907090EE4
:100E9000002804DB00F1E02080F80014704700F027
:100EA0000F0000F1E02080F8141D704702E008C830
:100EB000121F08C1002AFAD170477047002001E0D4
:100EC00001C1121F002AFBD17047FFF739FCFFF761
:100ED000A7FFFFF747FFFFF77DFFFEE700000000D9
:100EE00000000000010203040607080900000000DA
:100EF00001020304140F000800000020100000008D
:100F0000AC0E0008240F0008100000205804000058
:100F1000BC0E0008010000001000000000000000EE
:040F20000024F400B5
:040000050800018569
:00000001FF
